{
  "data": {
    "bytecode": {
      "linkReferences": {},
      "object": "608060405273dcad3a6d3569df655070ded06cb7a1b2ccd1d3af600160006101000a81548173ffffffffffffffffffffffffffffffffffffffff021916908373ffffffffffffffffffffffffffffffffffffffff16021790555034801561006557600080fd5b506040516104ef3803806104ef833981810160405281019061008791906100cf565b80600081905550506100fc565b600080fd5b6000819050919050565b6100ac81610099565b81146100b757600080fd5b50565b6000815190506100c9816100a3565b92915050565b6000602082840312156100e5576100e4610094565b5b60006100f3848285016100ba565b91505092915050565b6103e48061010b6000396000f3fe608060405234801561001057600080fd5b506004361061002b5760003560e01c8063c5d1c99514610030575b600080fd5b61004a60048036038101906100459190610255565b610060565b60405161005791906102f2565b60405180910390f35b6000827fac226a886beee08bc5b48547d34b08a8fecbacbed6a7ec64af2820a137d6f8b483604051610092919061038c565b60405180910390a2600160009054906101000a900473ffffffffffffffffffffffffffffffffffffffff16905092915050565b6000604051905090565b600080fd5b600080fd5b6000819050919050565b6100ec816100d9565b81146100f757600080fd5b50565b600081359050610109816100e3565b92915050565b600080fd5b600080fd5b6000601f19601f8301169050919050565b7f4e487b7100000000000000000000000000000000000000000000000000000000600052604160045260246000fd5b61016282610119565b810181811067ffffffffffffffff821117156101815761018061012a565b5b80604052505050565b60006101946100c5565b90506101a08282610159565b919050565b600067ffffffffffffffff8211156101c0576101bf61012a565b5b6101c982610119565b9050602081019050919050565b82818337600083830152505050565b60006101f86101f3846101a5565b61018a565b90508281526020810184848401111561021457610213610114565b5b61021f8482856101d6565b509392505050565b600082601f83011261023c5761023b61010f565b5b813561024c8482602086016101e5565b91505092915050565b6000806040838503121561026c5761026b6100cf565b5b600061027a858286016100fa565b925050602083013567ffffffffffffffff81111561029b5761029a6100d4565b5b6102a785828601610227565b9150509250929050565b600073ffffffffffffffffffffffffffffffffffffffff82169050919050565b60006102dc826102b1565b9050919050565b6102ec816102d1565b82525050565b600060208201905061030760008301846102e3565b92915050565b600081519050919050565b600082825260208201905092915050565b60005b8381101561034757808201518184015260208101905061032c565b60008484015250505050565b600061035e8261030d565b6103688185610318565b9350610378818560208601610329565b61038181610119565b840191505092915050565b600060208201905081810360008301526103a68184610353565b90509291505056fea2646970667358221220e0d25ff8054c680fe1cfc23a27696ba86f9efec3814bdcdd68b4c0a9a9f9d1cd64736f6c63430008110033",
      "opcodes": "PUSH1 0x80 PUSH1 0x40 MSTORE PUSH20 0xDCAD3A6D3569DF655070DED06CB7A1B2CCD1D3AF PUSH1 0x1 PUSH1 0x0 PUSH2 0x100 EXP DUP2 SLOAD DUP2 PUSH20 0xFFFFFFFFFFFFFFFFFFFFFFFFFFFFFFFFFFFFFFFF MUL NOT AND SWAP1 DUP4 PUSH20 0xFFFFFFFFFFFFFFFFFFFFFFFFFFFFFFFFFFFFFFFF AND MUL OR SWAP1 SSTORE POP CALLVALUE DUP1 ISZERO PUSH2 0x65 JUMPI PUSH1 0x0 DUP1 REVERT JUMPDEST POP PUSH1 0x40 MLOAD PUSH2 0x4EF CODESIZE SUB DUP1 PUSH2 0x4EF DUP4 CODECOPY DUP2 DUP2 ADD PUSH1 0x40 MSTORE DUP2 ADD SWAP1 PUSH2 0x87 SWAP2 SWAP1 PUSH2 0xCF JUMP JUMPDEST DUP1 PUSH1 0x0 DUP2 SWAP1 SSTORE POP POP PUSH2 0xFC JUMP JUMPDEST PUSH1 0x0 DUP1 REVERT JUMPDEST PUSH1 0x0 DUP2 SWAP1 POP SWAP2 SWAP1 POP JUMP JUMPDEST PUSH2 0xAC DUP2 PUSH2 0x99 JUMP JUMPDEST DUP2 EQ PUSH2 0xB7 JUMPI PUSH1 0x0 DUP1 REVERT JUMPDEST POP JUMP JUMPDEST PUSH1 0x0 DUP2 MLOAD SWAP1 POP PUSH2 0xC9 DUP2 PUSH2 0xA3 JUMP JUMPDEST SWAP3 SWAP2 POP POP JUMP JUMPDEST PUSH1 0x0 PUSH1 0x20 DUP3 DUP5 SUB SLT ISZERO PUSH2 0xE5 JUMPI PUSH2 0xE4 PUSH2 0x94 JUMP JUMPDEST JUMPDEST PUSH1 0x0 PUSH2 0xF3 DUP5 DUP3 DUP6 ADD PUSH2 0xBA JUMP JUMPDEST SWAP2 POP POP SWAP3 SWAP2 POP POP JUMP JUMPDEST PUSH2 0x3E4 DUP1 PUSH2 0x10B PUSH1 0x0 CODECOPY PUSH1 0x0 RETURN INVALID PUSH1 0x80 PUSH1 0x40 MSTORE CALLVALUE DUP1 ISZERO PUSH2 0x10 JUMPI PUSH1 0x0 DUP1 REVERT JUMPDEST POP PUSH1 0x4 CALLDATASIZE LT PUSH2 0x2B JUMPI PUSH1 0x0 CALLDATALOAD PUSH1 0xE0 SHR DUP1 PUSH4 0xC5D1C995 EQ PUSH2 0x30 JUMPI JUMPDEST PUSH1 0x0 DUP1 REVERT JUMPDEST PUSH2 0x4A PUSH1 0x4 DUP1 CALLDATASIZE SUB DUP2 ADD SWAP1 PUSH2 0x45 SWAP2 SWAP1 PUSH2 0x255 JUMP JUMPDEST PUSH2 0x60 JUMP JUMPDEST PUSH1 0x40 MLOAD PUSH2 0x57 SWAP2 SWAP1 PUSH2 0x2F2 JUMP JUMPDEST PUSH1 0x40 MLOAD DUP1 SWAP2 SUB SWAP1 RETURN JUMPDEST PUSH1 0x0 DUP3 PUSH32 0xAC226A886BEEE08BC5B48547D34B08A8FECBACBED6A7EC64AF2820A137D6F8B4 DUP4 PUSH1 0x40 MLOAD PUSH2 0x92 SWAP2 SWAP1 PUSH2 0x38C JUMP JUMPDEST PUSH1 0x40 MLOAD DUP1 SWAP2 SUB SWAP1 LOG2 PUSH1 0x1 PUSH1 0x0 SWAP1 SLOAD SWAP1 PUSH2 0x100 EXP SWAP1 DIV PUSH20 0xFFFFFFFFFFFFFFFFFFFFFFFFFFFFFFFFFFFFFFFF AND SWAP1 POP SWAP3 SWAP2 POP POP JUMP JUMPDEST PUSH1 0x0 PUSH1 0x40 MLOAD SWAP1 POP SWAP1 JUMP JUMPDEST PUSH1 0x0 DUP1 REVERT JUMPDEST PUSH1 0x0 DUP1 REVERT JUMPDEST PUSH1 0x0 DUP2 SWAP1 POP SWAP2 SWAP1 POP JUMP JUMPDEST PUSH2 0xEC DUP2 PUSH2 0xD9 JUMP JUMPDEST DUP2 EQ PUSH2 0xF7 JUMPI PUSH1 0x0 DUP1 REVERT JUMPDEST POP JUMP JUMPDEST PUSH1 0x0 DUP2 CALLDATALOAD SWAP1 POP PUSH2 0x109 DUP2 PUSH2 0xE3 JUMP JUMPDEST SWAP3 SWAP2 POP POP JUMP JUMPDEST PUSH1 0x0 DUP1 REVERT JUMPDEST PUSH1 0x0 DUP1 REVERT JUMPDEST PUSH1 0x0 PUSH1 0x1F NOT PUSH1 0x1F DUP4 ADD AND SWAP1 POP SWAP2 SWAP1 POP JUMP JUMPDEST PUSH32 0x4E487B7100000000000000000000000000000000000000000000000000000000 PUSH1 0x0 MSTORE PUSH1 0x41 PUSH1 0x4 MSTORE PUSH1 0x24 PUSH1 0x0 REVERT JUMPDEST PUSH2 0x162 DUP3 PUSH2 0x119 JUMP JUMPDEST DUP2 ADD DUP2 DUP2 LT PUSH8 0xFFFFFFFFFFFFFFFF DUP3 GT OR ISZERO PUSH2 0x181 JUMPI PUSH2 0x180 PUSH2 0x12A JUMP JUMPDEST JUMPDEST DUP1 PUSH1 0x40 MSTORE POP POP POP JUMP JUMPDEST PUSH1 0x0 PUSH2 0x194 PUSH2 0xC5 JUMP JUMPDEST SWAP1 POP PUSH2 0x1A0 DUP3 DUP3 PUSH2 0x159 JUMP JUMPDEST SWAP2 SWAP1 POP JUMP JUMPDEST PUSH1 0x0 PUSH8 0xFFFFFFFFFFFFFFFF DUP3 GT ISZERO PUSH2 0x1C0 JUMPI PUSH2 0x1BF PUSH2 0x12A JUMP JUMPDEST JUMPDEST PUSH2 0x1C9 DUP3 PUSH2 0x119 JUMP JUMPDEST SWAP1 POP PUSH1 0x20 DUP2 ADD SWAP1 POP SWAP2 SWAP1 POP JUMP JUMPDEST DUP3 DUP2 DUP4 CALLDATACOPY PUSH1 0x0 DUP4 DUP4 ADD MSTORE POP POP POP JUMP JUMPDEST PUSH1 0x0 PUSH2 0x1F8 PUSH2 0x1F3 DUP5 PUSH2 0x1A5 JUMP JUMPDEST PUSH2 0x18A JUMP JUMPDEST SWAP1 POP DUP3 DUP2 MSTORE PUSH1 0x20 DUP2 ADD DUP5 DUP5 DUP5 ADD GT ISZERO PUSH2 0x214 JUMPI PUSH2 0x213 PUSH2 0x114 JUMP JUMPDEST JUMPDEST PUSH2 0x21F DUP5 DUP3 DUP6 PUSH2 0x1D6 JUMP JUMPDEST POP SWAP4 SWAP3 POP POP POP JUMP JUMPDEST PUSH1 0x0 DUP3 PUSH1 0x1F DUP4 ADD SLT PUSH2 0x23C JUMPI PUSH2 0x23B PUSH2 0x10F JUMP JUMPDEST JUMPDEST DUP2 CALLDATALOAD PUSH2 0x24C DUP5 DUP3 PUSH1 0x20 DUP7 ADD PUSH2 0x1E5 JUMP JUMPDEST SWAP2 POP POP SWAP3 SWAP2 POP POP JUMP JUMPDEST PUSH1 0x0 DUP1 PUSH1 0x40 DUP4 DUP6 SUB SLT ISZERO PUSH2 0x26C JUMPI PUSH2 0x26B PUSH2 0xCF JUMP JUMPDEST JUMPDEST PUSH1 0x0 PUSH2 0x27A DUP6 DUP3 DUP7 ADD PUSH2 0xFA JUMP JUMPDEST SWAP3 POP POP PUSH1 0x20 DUP4 ADD CALLDATALOAD PUSH8 0xFFFFFFFFFFFFFFFF DUP2 GT ISZERO PUSH2 0x29B JUMPI PUSH2 0x29A PUSH2 0xD4 JUMP JUMPDEST JUMPDEST PUSH2 0x2A7 DUP6 DUP3 DUP7 ADD PUSH2 0x227 JUMP JUMPDEST SWAP2 POP POP SWAP3 POP SWAP3 SWAP1 POP JUMP JUMPDEST PUSH1 0x0 PUSH20 0xFFFFFFFFFFFFFFFFFFFFFFFFFFFFFFFFFFFFFFFF DUP3 AND SWAP1 POP SWAP2 SWAP1 POP JUMP JUMPDEST PUSH1 0x0 PUSH2 0x2DC DUP3 PUSH2 0x2B1 JUMP JUMPDEST SWAP1 POP SWAP2 SWAP1 POP JUMP JUMPDEST PUSH2 0x2EC DUP2 PUSH2 0x2D1 JUMP JUMPDEST DUP3 MSTORE POP POP JUMP JUMPDEST PUSH1 0x0 PUSH1 0x20 DUP3 ADD SWAP1 POP PUSH2 0x307 PUSH1 0x0 DUP4 ADD DUP5 PUSH2 0x2E3 JUMP JUMPDEST SWAP3 SWAP2 POP POP JUMP JUMPDEST PUSH1 0x0 DUP2 MLOAD SWAP1 POP SWAP2 SWAP1 POP JUMP JUMPDEST PUSH1 0x0 DUP3 DUP3 MSTORE PUSH1 0x20 DUP3 ADD SWAP1 POP SWAP3 SWAP2 POP POP JUMP JUMPDEST PUSH1 0x0 JUMPDEST DUP4 DUP2 LT ISZERO PUSH2 0x347 JUMPI DUP1 DUP3 ADD MLOAD DUP2 DUP5 ADD MSTORE PUSH1 0x20 DUP2 ADD SWAP1 POP PUSH2 0x32C JUMP JUMPDEST PUSH1 0x0 DUP5 DUP5 ADD MSTORE POP POP POP POP JUMP JUMPDEST PUSH1 0x0 PUSH2 0x35E DUP3 PUSH2 0x30D JUMP JUMPDEST PUSH2 0x368 DUP2 DUP6 PUSH2 0x318 JUMP JUMPDEST SWAP4 POP PUSH2 0x378 DUP2 DUP6 PUSH1 0x20 DUP7 ADD PUSH2 0x329 JUMP JUMPDEST PUSH2 0x381 DUP2 PUSH2 0x119 JUMP JUMPDEST DUP5 ADD SWAP2 POP POP SWAP3 SWAP2 POP POP JUMP JUMPDEST PUSH1 0x0 PUSH1 0x20 DUP3 ADD SWAP1 POP DUP2 DUP2 SUB PUSH1 0x0 DUP4 ADD MSTORE PUSH2 0x3A6 DUP2 DUP5 PUSH2 0x353 JUMP JUMPDEST SWAP1 POP SWAP3 SWAP2 POP POP JUMP INVALID LOG2 PUSH5 0x6970667358 0x22 SLT KECCAK256 0xE0 0xD2 0x5F 0xF8 SDIV 0x4C PUSH9 0xFE1CFC23A27696BA8 PUSH16 0x9EFEC3814BDCDD68B4C0A9A9F9D1CD64 PUSH20 0x6F6C634300081100330000000000000000000000 "
    },
    "gasEstimates": {
      "creation": {
        "codeDepositCost": "199200",
        "executionCost": "infinite",
        "totalCost": "infinite"
      },
      "external": {
        "foo(uint256,string)": "infinite"
      }
    },
    "methodIdentifiers": {
      "foo(uint256,string)": "c5d1c995"
    }
  },
  "abi": [
    {
      "inputs": [
        {
          "internalType": "uint256",
          "name": "testInt",
          "type": "uint256"
        }
      ],
      "stateMutability": "nonpayable",
      "type": "constructor"
    },
    {
      "anonymous": false,
      "inputs": [
        {
          "indexed": true,
          "internalType": "uint256",
          "name": "b",
          "type": "uint256"
        },
        {
          "indexed": false,
          "internalType": "string",
          "name": "c",
          "type": "string"
        }
      ],
      "name": "Event",
      "type": "event"
    },
    {
      "anonymous": false,
      "inputs": [
        {
          "indexed": true,
          "internalType": "uint256",
          "name": "b",
          "type": "uint256"
        },
        {
          "indexed": false,
          "internalType": "string",
          "name": "c",
          "type": "string"
        }
      ],
      "name": "Event2",
      "type": "event"
    },
    {
      "inputs": [
        {
          "internalType": "uint256",
          "name": "b",
          "type": "uint256"
        },
        {
          "internalType": "string",
          "name": "c",
          "type": "string"
        }
      ],
      "name": "foo",
      "outputs": [
        {
          "internalType": "address",
          "name": "",
          "type": "address"
        }
      ],
      "stateMutability": "nonpayable",
      "type": "function"
    }
  ]
}